{
  "_format": "hh-sol-artifact-1",
  "contractName": "Marketplace",
  "sourceName": "contracts/Marketplace.sol",
  "abi": [
    {
      "inputs": [],
      "stateMutability": "nonpayable",
      "type": "constructor"
    },
    {
      "anonymous": false,
      "inputs": [
        {
          "indexed": false,
          "internalType": "uint256",
          "name": "listingId",
          "type": "uint256"
        },
        {
          "indexed": true,
          "internalType": "address",
          "name": "nftContract",
          "type": "address"
        },
        {
          "indexed": true,
          "internalType": "uint256",
          "name": "nftId",
          "type": "uint256"
        },
        {
          "indexed": false,
          "internalType": "address",
          "name": "seller",
          "type": "address"
        },
        {
          "indexed": false,
          "internalType": "uint256",
          "name": "price",
          "type": "uint256"
        },
        {
          "indexed": false,
          "internalType": "bool",
          "name": "isAuction",
          "type": "bool"
        },
        {
          "indexed": false,
          "internalType": "uint256",
          "name": "date",
          "type": "uint256"
        },
        {
          "indexed": false,
          "internalType": "address",
          "name": "highestBidder",
          "type": "address"
        }
      ],
      "name": "ListingCreated",
      "type": "event"
    },
    {
      "anonymous": false,
      "inputs": [
        {
          "indexed": false,
          "internalType": "address",
          "name": "buyer",
          "type": "address"
        },
        {
          "components": [
            {
              "internalType": "address",
              "name": "nftContract",
              "type": "address"
            },
            {
              "internalType": "uint256",
              "name": "nftId",
              "type": "uint256"
            },
            {
              "internalType": "address payable",
              "name": "seller",
              "type": "address"
            },
            {
              "internalType": "uint256",
              "name": "price",
              "type": "uint256"
            },
            {
              "internalType": "bool",
              "name": "isAuction",
              "type": "bool"
            },
            {
              "internalType": "uint256",
              "name": "date",
              "type": "uint256"
            },
            {
              "internalType": "address",
              "name": "highestBidder",
              "type": "address"
            }
          ],
          "indexed": false,
          "internalType": "struct Marketplace.Listing",
          "name": "listing",
          "type": "tuple"
        },
        {
          "indexed": false,
          "internalType": "uint256",
          "name": "newBid",
          "type": "uint256"
        }
      ],
      "name": "NewBid",
      "type": "event"
    },
    {
      "anonymous": false,
      "inputs": [
        {
          "indexed": true,
          "internalType": "address",
          "name": "previousOwner",
          "type": "address"
        },
        {
          "indexed": true,
          "internalType": "address",
          "name": "newOwner",
          "type": "address"
        }
      ],
      "name": "OwnershipTransferred",
      "type": "event"
    },
    {
      "anonymous": false,
      "inputs": [
        {
          "indexed": true,
          "internalType": "uint256",
          "name": "itemId",
          "type": "uint256"
        },
        {
          "indexed": false,
          "internalType": "address",
          "name": "buyer",
          "type": "address"
        },
        {
          "indexed": false,
          "internalType": "uint256",
          "name": "price",
          "type": "uint256"
        }
      ],
      "name": "Purchase",
      "type": "event"
    },
    {
      "anonymous": false,
      "inputs": [
        {
          "indexed": true,
          "internalType": "uint256",
          "name": "itemId",
          "type": "uint256"
        },
        {
          "indexed": false,
          "internalType": "address",
          "name": "owner",
          "type": "address"
        },
        {
          "indexed": false,
          "internalType": "uint256",
          "name": "price",
          "type": "uint256"
        }
      ],
      "name": "UpdatedPrice",
      "type": "event"
    },
    {
      "inputs": [
        {
          "internalType": "uint256",
          "name": "listingId",
          "type": "uint256"
        }
      ],
      "name": "auctionCancel",
      "outputs": [],
      "stateMutability": "nonpayable",
      "type": "function"
    },
    {
      "inputs": [
        {
          "internalType": "uint256",
          "name": "listingId",
          "type": "uint256"
        }
      ],
      "name": "bid",
      "outputs": [],
      "stateMutability": "payable",
      "type": "function"
    },
    {
      "inputs": [
        {
          "internalType": "uint256",
          "name": "listingId",
          "type": "uint256"
        }
      ],
      "name": "buy",
      "outputs": [],
      "stateMutability": "payable",
      "type": "function"
    },
    {
      "inputs": [
        {
          "internalType": "address",
          "name": "nftContract",
          "type": "address"
        },
        {
          "internalType": "uint256",
          "name": "nftId",
          "type": "uint256"
        },
        {
          "internalType": "uint256",
          "name": "price",
          "type": "uint256"
        },
        {
          "internalType": "bool",
          "name": "isAuction",
          "type": "bool"
        },
        {
          "internalType": "uint256",
          "name": "biddingTime",
          "type": "uint256"
        }
      ],
      "name": "createListing",
      "outputs": [],
      "stateMutability": "nonpayable",
      "type": "function"
    },
    {
      "inputs": [
        {
          "internalType": "uint256",
          "name": "listingId",
          "type": "uint256"
        }
      ],
      "name": "getPrice",
      "outputs": [
        {
          "internalType": "uint256",
          "name": "",
          "type": "uint256"
        }
      ],
      "stateMutability": "view",
      "type": "function"
    },
    {
      "inputs": [
        {
          "internalType": "uint256",
          "name": "",
          "type": "uint256"
        }
      ],
      "name": "listings",
      "outputs": [
        {
          "internalType": "address",
          "name": "nftContract",
          "type": "address"
        },
        {
          "internalType": "uint256",
          "name": "nftId",
          "type": "uint256"
        },
        {
          "internalType": "address payable",
          "name": "seller",
          "type": "address"
        },
        {
          "internalType": "uint256",
          "name": "price",
          "type": "uint256"
        },
        {
          "internalType": "bool",
          "name": "isAuction",
          "type": "bool"
        },
        {
          "internalType": "uint256",
          "name": "date",
          "type": "uint256"
        },
        {
          "internalType": "address",
          "name": "highestBidder",
          "type": "address"
        }
      ],
      "stateMutability": "view",
      "type": "function"
    },
    {
      "inputs": [],
      "name": "owner",
      "outputs": [
        {
          "internalType": "address",
          "name": "",
          "type": "address"
        }
      ],
      "stateMutability": "view",
      "type": "function"
    },
    {
      "inputs": [
        {
          "internalType": "uint256",
          "name": "listingId",
          "type": "uint256"
        }
      ],
      "name": "removeListing",
      "outputs": [],
      "stateMutability": "nonpayable",
      "type": "function"
    },
    {
      "inputs": [],
      "name": "renounceOwnership",
      "outputs": [],
      "stateMutability": "nonpayable",
      "type": "function"
    },
    {
      "inputs": [
        {
          "internalType": "address",
          "name": "",
          "type": "address"
        }
      ],
      "name": "royalties",
      "outputs": [
        {
          "internalType": "address",
          "name": "_nftContract",
          "type": "address"
        },
        {
          "internalType": "address",
          "name": "payoutAccount",
          "type": "address"
        },
        {
          "internalType": "uint256",
          "name": "royaltyAmount",
          "type": "uint256"
        },
        {
          "internalType": "bool",
          "name": "exists",
          "type": "bool"
        }
      ],
      "stateMutability": "view",
      "type": "function"
    },
    {
      "inputs": [
        {
          "internalType": "address",
          "name": "contractAddress",
          "type": "address"
        },
        {
          "internalType": "address",
          "name": "payoutAccount",
          "type": "address"
        },
        {
          "internalType": "uint256",
          "name": "royaltyAmount",
          "type": "uint256"
        }
      ],
      "name": "setNFTCollectionRoyalty",
      "outputs": [
        {
          "internalType": "bool",
          "name": "",
          "type": "bool"
        }
      ],
      "stateMutability": "nonpayable",
      "type": "function"
    },
    {
      "inputs": [
        {
          "internalType": "address",
          "name": "newOwner",
          "type": "address"
        }
      ],
      "name": "transferOwnership",
      "outputs": [],
      "stateMutability": "nonpayable",
      "type": "function"
    },
    {
      "inputs": [
        {
          "internalType": "uint256",
          "name": "listingId",
          "type": "uint256"
        },
        {
          "internalType": "uint256",
          "name": "newPrice",
          "type": "uint256"
        }
      ],
      "name": "updatePrice",
      "outputs": [],
      "stateMutability": "nonpayable",
      "type": "function"
    },
    {
      "inputs": [
        {
          "internalType": "uint256",
          "name": "listingId",
          "type": "uint256"
        }
      ],
      "name": "withdraw",
      "outputs": [],
      "stateMutability": "nonpayable",
      "type": "function"
    },
    {
      "stateMutability": "payable",
      "type": "receive"
    }
  ],
  "bytecode": "0x608060405234801561001057600080fd5b50600160005561001f33610024565b610076565b600180546001600160a01b038381166001600160a01b0319831681179093556040519116919082907f8be0079c531659141344cd1fd0a4f28419497f9722a3daafe3b4186f6b6457e090600090a35050565b611b67806100856000396000f3fe6080604052600436106100e15760003560e01c80638da5cb5b1161007f578063d96a094a11610059578063d96a094a14610293578063de74e57b146102a6578063e757223014610357578063f2fde38b1461039657600080fd5b80638da5cb5b146101cc5780639fa6b4a0146101f4578063d9194bb21461027357600080fd5b8063479ad4c3116100bb578063479ad4c31461014257806365af3c9314610162578063715018a61461019757806382367b2d146101ac57600080fd5b80632e1a7d4d146100ed5780633af826a41461010f578063454a2ab31461012f57600080fd5b366100e857005b600080fd5b3480156100f957600080fd5b5061010d610108366004611876565b6103b6565b005b34801561011b57600080fd5b5061010d61012a366004611876565b610679565b61010d61013d366004611876565b610821565b34801561014e57600080fd5b5061010d61015d366004611876565b610b08565b34801561016e57600080fd5b5061018261017d3660046118ab565b610c8a565b60405190151581526020015b60405180910390f35b3480156101a357600080fd5b5061010d610e60565b3480156101b857600080fd5b5061010d6101c73660046118e7565b610ec6565b3480156101d857600080fd5b506001546040516001600160a01b03909116815260200161018e565b34801561020057600080fd5b5061024661020f366004611909565b60046020526000908152604090208054600182015460028301546003909301546001600160a01b0392831693919092169160ff1684565b604080516001600160a01b039586168152949093166020850152918301521515606082015260800161018e565b34801561027f57600080fd5b5061010d61028e36600461192b565b610ff3565b61010d6102a1366004611876565b61128d565b3480156102b257600080fd5b506103106102c1366004611876565b600360208190526000918252604090912080546001820154600283015493830154600484015460058501546006909501546001600160a01b0394851696939593851694929360ff909216921687565b604080516001600160a01b03988916815260208101979097529487169486019490945260608501929092521515608084015260a083015290911660c082015260e00161018e565b34801561036357600080fd5b50610388610372366004611876565b6000908152600360208190526040909120015490565b60405190815260200161018e565b3480156103a257600080fd5b5061010d6103b1366004611909565b611649565b600260005414156103e25760405162461bcd60e51b81526004016103d990611980565b60405180910390fd5b600260008181558281526003602081815260408084208054600180830154838901546006850154978501546001600160a01b03948516808b526004909852958920998a015499909201549398959790969183169591831694939192919091169061271061044f84866119cd565b61045991906119ec565b6104639085611a0e565b9050600061271061047485876119cd565b61047e91906119ec565b9050336001600160a01b038816148061049f5750336001600160a01b038716145b6105035760405162461bcd60e51b815260206004820152602f60248201527f4f6e6c79207468652073656c6c6572206f72206869676865737420626964646560448201526e391031b0b7103bb4ba34323930bb9760891b60648201526084016103d9565b604051637921219560e11b81526001600160a01b038a169063f242432a90610536908a908a908d90600190600401611a25565b600060405180830381600087803b15801561055057600080fd5b505af1158015610564573d6000803e3d6000fd5b505050506000876001600160a01b03168360405160006040518083038185875af1925050503d80600081146105b5576040519150601f19603f3d011682016040523d82523d6000602084013e6105ba565b606091505b505090506000846001600160a01b03168360405160006040518083038185875af1925050503d806000811461060b576040519150601f19603f3d011682016040523d82523d6000602084013e610610565b606091505b505060048d01805460ff19169055604080516001600160a01b038b168152602081018a90529192508e917f9b9322562a425e363b0c2f80fc966e9c4f48ac3b5c2d1527d75829c8f505ec96910160405180910390a2505060016000555050505050505050505050565b6000818152600360208181526040808420815160e08101835281546001600160a01b039081168252600183015494820194909452600280830154851693820193909352938101546060850152600481015460ff1615156080850152600581015460a08501526006015490911660c083015291548392141561070c5760405162461bcd60e51b81526004016103d990611980565b600260009081558381526003602052604090206005810154421061076e5760405162461bcd60e51b8152602060048201526019602482015278105d58dd1a5bdb881a185cc8185b1c9958591e48195b991959603a1b60448201526064016103d9565b60068101546001600160a01b0316156107c357600681015460038201546040516001600160a01b039092169181156108fc0291906000818181858888f193505050501580156107c1573d6000803e3d6000fd5b505b5050506000908152600360208190526040822080546001600160a01b0319908116825560018083018590556002830180548316905592820184905560048201805460ff19169055600582018490556006909101805490911690559055565b600260005414156108445760405162461bcd60e51b81526004016103d990611980565b6002600081815582815260036020819052604090912090810154600682015492820154919290916001600160a01b0391821691163314156108975760405162461bcd60e51b81526004016103d990611a5d565b600483015460ff166108eb5760405162461bcd60e51b815260206004820152601e60248201527f54686973206c697374696e67206973206e6f7420616e2061756374696f6e000060448201526064016103d9565b8260050154421061093a5760405162461bcd60e51b8152602060048201526019602482015278105d58dd1a5bdb881a185cc8185b1c9958591e48195b991959603a1b60448201526064016103d9565b8260030154341161099c5760405162461bcd60e51b815260206004820152602660248201527f426964206d7573742062652067726561746572207468616e2070726576696f7560448201526539903134b21760d11b60648201526084016103d9565b604051600090309034908381818185875af1925050503d80600081146109de576040519150601f19603f3d011682016040523d82523d6000602084013e6109e3565b606091505b505060068501549091506001600160a01b031615610a52576000826001600160a01b03168460405160006040518083038185875af1925050503d8060008114610a48576040519150601f19603f3d011682016040523d82523d6000602084013e610a4d565b606091505b505050505b600684018054336001600160a01b0319909116811790915534600386018190556040805183815287546001600160a01b039081166020830152600189015482840152600289015416606082015260808101839052600488015460ff16151560a0820152600588015460c082015260e0810193909352610100830191909152517f0efacbdb5858a83ba41a9975317e476ec2623ac383ee8126e8f839ffd588e960918190036101200190a150506001600055505050565b6000818152600360208181526040808420815160e08101835281546001600160a01b03908116825260018301548286015260028301548116938201849052828601546060830152600483015460ff1615156080830152600583015460a083015260068301541660c08201529486905292909152839291903314610bcd5760405162461bcd60e51b815260206004820152601c60248201527f596f7520646f206e6f74206f776e2074686973206c697374696e672e0000000060448201526064016103d9565b600481015460ff1615610c2e5760405162461bcd60e51b815260206004820152602360248201527f596f752063616e6e6f742072656d6f766520616e20616374697665206175637460448201526234b7b760e91b60648201526084016103d9565b5050506000908152600360208190526040822080546001600160a01b03199081168255600182018490556002820180548216905591810183905560048101805460ff191690556005810192909255600690910180549091169055565b6001600160a01b03831660009081526004602052604081206003015460ff1615610d075760405162461bcd60e51b815260206004820152602860248201527f436f6c6c656374696f6e20616c72656164792068617320726f79616c747920696044820152673733379039b2ba1760c11b60648201526084016103d9565b600082118015610d1957506113888211155b610d7f5760405162461bcd60e51b815260206004820152603160248201527f506c6561736520736574206120726f79616c747920616d6f756e74206265747760448201527065656e20302e30312520616e642035302560781b60648201526084016103d9565b6001600160a01b038316610dd55760405162461bcd60e51b815260206004820152601f60248201527f526f79616c746965732073686f756c64206e6f74206265206275726e65642e0060448201526064016103d9565b50604080516080810182526001600160a01b0394851680825293851660208083019182528284019485526001606084018181526000978852600490925293909520915182549087166001600160a01b031991821617835590518284018054919097169116179094559051600284015590516003909201805492151560ff199093169290921790915590565b6001546001600160a01b03163314610eba5760405162461bcd60e51b815260206004820181905260248201527f4f776e61626c653a2063616c6c6572206973206e6f7420746865206f776e657260448201526064016103d9565b610ec46000611714565b565b6000828152600360208181526040808420815160e08101835281546001600160a01b0390811682526001830154828601526002830154811693820193909352818501546060820152600482015460ff161580156080830152600583015460a083015260069092015490921660c0830152938690529190528391610f9d5760405162461bcd60e51b815260206004820152602960248201527f41756374696f6e207374617274696e67207072696365732063616e6e6f74206260448201526819481d5c19185d195960ba1b60648201526084016103d9565b600084815260036020818152604092839020909101859055815133815290810185905285917fa31afe7e1095ff5691002b0fc0eaaf501f18b562b88369b0acf5d4e670d7426f910160405180910390a250505050565b600260005414156110165760405162461bcd60e51b81526004016103d990611980565b6002600055826110685760405162461bcd60e51b815260206004820152601d60248201527f5072696365206d7573742062652067726561746572207468616e20302e00000060448201526064016103d9565b6000611075338688611766565b116110ce5760405162461bcd60e51b8152602060048201526024808201527f596f752063616e27742073656c6c20616e204e465420796f7520646f6e2774206044820152636f776e2160e01b60648201526084016103d9565b811561112457600081116111245760405162461bcd60e51b815260206004820152601f60248201527f41756374696f6e73206d757374206861766520612076616c696420646174650060448201526064016103d9565b611132600280546001019055565b600061113d60025490565b9050600061114b8342611aa3565b6040805160e0810182526001600160a01b03808b1680835260208084018c815233858701818152606087018e81528d15156080890190815260a089018b8152600060c08b018181528f82526003988990528c82209b518c54908c166001600160a01b0319918216178d55975160018d0155945160028c018054918c169189169190911790559251968a01969096555160048901805491151560ff19909216919091179055935160058801555160069096018054969095169590911694909417909255925193945089937fde1334e5eca8747f05c59a2e4cffecb3624d40357afb337a57284e1741e473b7926112779288928c918c918a91909586526001600160a01b0394851660208701526040860193909352901515606085015260808401521660a082015260c00190565b60405180910390a3505060016000555050505050565b600260005414156112b05760405162461bcd60e51b81526004016103d990611980565b60026000818155828152600360208181526040808420815160e08101835281546001600160a01b03908116808352600180850154848801819052858b01548416858801819052988601546060860181905260048088015460ff1615156080880152600588015460a0880152600690970154851660c0870152838b5295909752949097209788015497909301549096919216338514156113615760405162461bcd60e51b81526004016103d990611a5d565b6001600160a01b0386166113b75760405162461bcd60e51b815260206004820152601760248201527f4c697374696e6720646f6573206e6f742065786973742e00000000000000000060448201526064016103d9565b6080870151156114195760405162461bcd60e51b815260206004820152602760248201527f54686973206c697374696e672069732064657369676e6174656420666f7220616044820152663ab1ba34b7b71760c91b60648201526084016103d9565b8234101561148f5760405162461bcd60e51b815260206004820152603860248201527f506c65617365207375626d69742061736b696e6720707269636520696e206f7260448201527f64657220746f20636f6d706c657465207075726368617365000000000000000060648201526084016103d9565b6114b9604051806040016040528060088152602001673a3930b739b332b960c11b8152508561180c565b604051637921219560e11b81526001600160a01b0387169063f242432a906114ec90889033908990600190600401611a25565b600060405180830381600087803b15801561150657600080fd5b505af115801561151a573d6000803e3d6000fd5b505050506000856001600160a01b0316612710848661153991906119cd565b61154391906119ec565b61154d9086611a0e565b604051600081818185875af1925050503d8060008114611589576040519150601f19603f3d011682016040523d82523d6000602084013e61158e565b606091505b505090506000826001600160a01b031661271085876115ad91906119cd565b6115b791906119ec565b604051600081818185875af1925050503d80600081146115f3576040519150601f19603f3d011682016040523d82523d6000602084013e6115f8565b606091505b505060408051338152602081018890529192508b917f9b9322562a425e363b0c2f80fc966e9c4f48ac3b5c2d1527d75829c8f505ec96910160405180910390a2505060016000555050505050505050565b6001546001600160a01b031633146116a35760405162461bcd60e51b815260206004820181905260248201527f4f776e61626c653a2063616c6c6572206973206e6f7420746865206f776e657260448201526064016103d9565b6001600160a01b0381166117085760405162461bcd60e51b815260206004820152602660248201527f4f776e61626c653a206e6577206f776e657220697320746865207a65726f206160448201526564647265737360d01b60648201526084016103d9565b61171181611714565b50565b600180546001600160a01b038381166001600160a01b0319831681179093556040519116919082907f8be0079c531659141344cd1fd0a4f28419497f9722a3daafe3b4186f6b6457e090600090a35050565b604051627eeac760e11b81526001600160a01b03848116600483015260248201849052600091829184169062fdd58e90604401602060405180830381865afa1580156117b6573d6000803e3d6000fd5b505050506040513d601f19601f820116820180604052508101906117da9190611abb565b9050611804604051806040016040528060068152602001651c995cdd5b1d60d21b8152508261180c565b949350505050565b6118518282604051602401611822929190611ad4565b60408051601f198184030181529190526020810180516001600160e01b03166309710a9d60e41b179052611855565b5050565b80516a636f6e736f6c652e6c6f67602083016000808483855afa5050505050565b60006020828403121561188857600080fd5b5035919050565b80356001600160a01b03811681146118a657600080fd5b919050565b6000806000606084860312156118c057600080fd5b6118c98461188f565b92506118d76020850161188f565b9150604084013590509250925092565b600080604083850312156118fa57600080fd5b50508035926020909101359150565b60006020828403121561191b57600080fd5b6119248261188f565b9392505050565b600080600080600060a0868803121561194357600080fd5b61194c8661188f565b945060208601359350604086013592506060860135801515811461196f57600080fd5b949793965091946080013592915050565b6020808252601f908201527f5265656e7472616e637947756172643a207265656e7472616e742063616c6c00604082015260600190565b634e487b7160e01b600052601160045260246000fd5b60008160001904831182151516156119e7576119e76119b7565b500290565b600082611a0957634e487b7160e01b600052601260045260246000fd5b500490565b600082821015611a2057611a206119b7565b500390565b6001600160a01b0394851681529290931660208301526040820152606081019190915260a06080820181905260009082015260c00190565b60208082526026908201527f596f752063616e6e6f742062757920616e204e465420796f7520617265207365604082015265363634b7339760d11b606082015260800190565b60008219821115611ab657611ab66119b7565b500190565b600060208284031215611acd57600080fd5b5051919050565b604081526000835180604084015260005b81811015611b025760208187018101516060868401015201611ae5565b81811115611b14576000606083860101525b50602083019390935250601f91909101601f19160160600191905056fea2646970667358221220222cacc144716faab46a5030d9f02ea091e429cbe8d32990bf8a5dbcd4e89aa064736f6c634300080b0033",
  "linkReferences": {},
  "deployedLinkReferences": {}
}