{
  "_format": "hh-sol-artifact-1",
  "contractName": "NftLogic",
  "sourceName": "contracts/NftLogic.sol",
  "abi": [
    {
      "inputs": [],
      "stateMutability": "nonpayable",
      "type": "constructor"
    },
    {
      "anonymous": false,
      "inputs": [
        {
          "indexed": true,
          "internalType": "address",
          "name": "account",
          "type": "address"
        },
        {
          "indexed": true,
          "internalType": "address",
          "name": "operator",
          "type": "address"
        },
        {
          "indexed": false,
          "internalType": "bool",
          "name": "approved",
          "type": "bool"
        }
      ],
      "name": "ApprovalForAll",
      "type": "event"
    },
    {
      "anonymous": false,
      "inputs": [
        {
          "indexed": true,
          "internalType": "uint256",
          "name": "tokenId",
          "type": "uint256"
        }
      ],
      "name": "Burn",
      "type": "event"
    },
    {
      "anonymous": false,
      "inputs": [
        {
          "indexed": false,
          "internalType": "string",
          "name": "userChoice",
          "type": "string"
        },
        {
          "indexed": false,
          "internalType": "uint256",
          "name": "userValue",
          "type": "uint256"
        },
        {
          "indexed": false,
          "internalType": "uint256",
          "name": "websiteValue",
          "type": "uint256"
        },
        {
          "indexed": false,
          "internalType": "bool",
          "name": "userWon",
          "type": "bool"
        }
      ],
      "name": "Fought",
      "type": "event"
    },
    {
      "anonymous": false,
      "inputs": [
        {
          "indexed": true,
          "internalType": "uint256",
          "name": "tokenId",
          "type": "uint256"
        },
        {
          "indexed": false,
          "internalType": "uint256",
          "name": "attr1",
          "type": "uint256"
        },
        {
          "indexed": false,
          "internalType": "uint256",
          "name": "attr2",
          "type": "uint256"
        },
        {
          "indexed": false,
          "internalType": "uint256",
          "name": "attr3",
          "type": "uint256"
        },
        {
          "indexed": false,
          "internalType": "uint256",
          "name": "attr4",
          "type": "uint256"
        },
        {
          "indexed": false,
          "internalType": "uint256",
          "name": "attr5",
          "type": "uint256"
        },
        {
          "indexed": false,
          "internalType": "uint256",
          "name": "wins",
          "type": "uint256"
        }
      ],
      "name": "Minted",
      "type": "event"
    },
    {
      "anonymous": false,
      "inputs": [
        {
          "indexed": true,
          "internalType": "address",
          "name": "operator",
          "type": "address"
        },
        {
          "indexed": true,
          "internalType": "address",
          "name": "from",
          "type": "address"
        },
        {
          "indexed": true,
          "internalType": "address",
          "name": "to",
          "type": "address"
        },
        {
          "indexed": false,
          "internalType": "uint256[]",
          "name": "ids",
          "type": "uint256[]"
        },
        {
          "indexed": false,
          "internalType": "uint256[]",
          "name": "values",
          "type": "uint256[]"
        }
      ],
      "name": "TransferBatch",
      "type": "event"
    },
    {
      "anonymous": false,
      "inputs": [
        {
          "indexed": true,
          "internalType": "address",
          "name": "operator",
          "type": "address"
        },
        {
          "indexed": true,
          "internalType": "address",
          "name": "from",
          "type": "address"
        },
        {
          "indexed": true,
          "internalType": "address",
          "name": "to",
          "type": "address"
        },
        {
          "indexed": false,
          "internalType": "uint256",
          "name": "id",
          "type": "uint256"
        },
        {
          "indexed": false,
          "internalType": "uint256",
          "name": "value",
          "type": "uint256"
        }
      ],
      "name": "TransferSingle",
      "type": "event"
    },
    {
      "anonymous": false,
      "inputs": [
        {
          "indexed": false,
          "internalType": "string",
          "name": "value",
          "type": "string"
        },
        {
          "indexed": true,
          "internalType": "uint256",
          "name": "id",
          "type": "uint256"
        }
      ],
      "name": "URI",
      "type": "event"
    },
    {
      "inputs": [],
      "name": "_totalSupply",
      "outputs": [
        {
          "internalType": "uint256",
          "name": "",
          "type": "uint256"
        }
      ],
      "stateMutability": "view",
      "type": "function"
    },
    {
      "inputs": [
        {
          "internalType": "address",
          "name": "account",
          "type": "address"
        },
        {
          "internalType": "uint256",
          "name": "id",
          "type": "uint256"
        }
      ],
      "name": "balanceOf",
      "outputs": [
        {
          "internalType": "uint256",
          "name": "",
          "type": "uint256"
        }
      ],
      "stateMutability": "view",
      "type": "function"
    },
    {
      "inputs": [
        {
          "internalType": "address[]",
          "name": "accounts",
          "type": "address[]"
        },
        {
          "internalType": "uint256[]",
          "name": "ids",
          "type": "uint256[]"
        }
      ],
      "name": "balanceOfBatch",
      "outputs": [
        {
          "internalType": "uint256[]",
          "name": "",
          "type": "uint256[]"
        }
      ],
      "stateMutability": "view",
      "type": "function"
    },
    {
      "inputs": [
        {
          "internalType": "address",
          "name": "",
          "type": "address"
        }
      ],
      "name": "dailyLimit",
      "outputs": [
        {
          "internalType": "uint256",
          "name": "",
          "type": "uint256"
        }
      ],
      "stateMutability": "view",
      "type": "function"
    },
    {
      "inputs": [
        {
          "internalType": "uint256",
          "name": "_userTokenId",
          "type": "uint256"
        },
        {
          "internalType": "string",
          "name": "_attribute",
          "type": "string"
        },
        {
          "internalType": "bool",
          "name": "_higher",
          "type": "bool"
        }
      ],
      "name": "fight",
      "outputs": [],
      "stateMutability": "nonpayable",
      "type": "function"
    },
    {
      "inputs": [
        {
          "internalType": "uint256",
          "name": "_tokenId",
          "type": "uint256"
        },
        {
          "internalType": "string",
          "name": "_attribute",
          "type": "string"
        }
      ],
      "name": "getAttribute",
      "outputs": [
        {
          "internalType": "uint256",
          "name": "",
          "type": "uint256"
        }
      ],
      "stateMutability": "view",
      "type": "function"
    },
    {
      "inputs": [
        {
          "internalType": "uint256",
          "name": "_tokenId",
          "type": "uint256"
        }
      ],
      "name": "getWins",
      "outputs": [
        {
          "internalType": "uint256",
          "name": "",
          "type": "uint256"
        }
      ],
      "stateMutability": "view",
      "type": "function"
    },
    {
      "inputs": [
        {
          "internalType": "address",
          "name": "",
          "type": "address"
        },
        {
          "internalType": "uint256",
          "name": "",
          "type": "uint256"
        }
      ],
      "name": "inventory",
      "outputs": [
        {
          "internalType": "uint256",
          "name": "topSpeed",
          "type": "uint256"
        },
        {
          "internalType": "uint256",
          "name": "power",
          "type": "uint256"
        },
        {
          "internalType": "uint256",
          "name": "weight",
          "type": "uint256"
        },
        {
          "internalType": "uint256",
          "name": "capacity",
          "type": "uint256"
        },
        {
          "internalType": "uint256",
          "name": "acceleration",
          "type": "uint256"
        },
        {
          "internalType": "uint256",
          "name": "wins",
          "type": "uint256"
        }
      ],
      "stateMutability": "view",
      "type": "function"
    },
    {
      "inputs": [
        {
          "internalType": "address",
          "name": "account",
          "type": "address"
        },
        {
          "internalType": "address",
          "name": "operator",
          "type": "address"
        }
      ],
      "name": "isApprovedForAll",
      "outputs": [
        {
          "internalType": "bool",
          "name": "",
          "type": "bool"
        }
      ],
      "stateMutability": "view",
      "type": "function"
    },
    {
      "inputs": [],
      "name": "mintNFTs",
      "outputs": [
        {
          "internalType": "uint256[3]",
          "name": "",
          "type": "uint256[3]"
        }
      ],
      "stateMutability": "nonpayable",
      "type": "function"
    },
    {
      "inputs": [],
      "name": "mintWebsiteNFT",
      "outputs": [
        {
          "internalType": "uint256",
          "name": "tokenId",
          "type": "uint256"
        }
      ],
      "stateMutability": "nonpayable",
      "type": "function"
    },
    {
      "inputs": [
        {
          "internalType": "uint256",
          "name": "",
          "type": "uint256"
        }
      ],
      "name": "nfts",
      "outputs": [
        {
          "internalType": "uint256",
          "name": "topSpeed",
          "type": "uint256"
        },
        {
          "internalType": "uint256",
          "name": "power",
          "type": "uint256"
        },
        {
          "internalType": "uint256",
          "name": "weight",
          "type": "uint256"
        },
        {
          "internalType": "uint256",
          "name": "capacity",
          "type": "uint256"
        },
        {
          "internalType": "uint256",
          "name": "acceleration",
          "type": "uint256"
        },
        {
          "internalType": "uint256",
          "name": "wins",
          "type": "uint256"
        }
      ],
      "stateMutability": "view",
      "type": "function"
    },
    {
      "inputs": [
        {
          "internalType": "address",
          "name": "from",
          "type": "address"
        },
        {
          "internalType": "address",
          "name": "to",
          "type": "address"
        },
        {
          "internalType": "uint256[]",
          "name": "ids",
          "type": "uint256[]"
        },
        {
          "internalType": "uint256[]",
          "name": "amounts",
          "type": "uint256[]"
        },
        {
          "internalType": "bytes",
          "name": "data",
          "type": "bytes"
        }
      ],
      "name": "safeBatchTransferFrom",
      "outputs": [],
      "stateMutability": "nonpayable",
      "type": "function"
    },
    {
      "inputs": [
        {
          "internalType": "address",
          "name": "from",
          "type": "address"
        },
        {
          "internalType": "address",
          "name": "to",
          "type": "address"
        },
        {
          "internalType": "uint256",
          "name": "id",
          "type": "uint256"
        },
        {
          "internalType": "uint256",
          "name": "amount",
          "type": "uint256"
        },
        {
          "internalType": "bytes",
          "name": "data",
          "type": "bytes"
        }
      ],
      "name": "safeTransferFrom",
      "outputs": [],
      "stateMutability": "nonpayable",
      "type": "function"
    },
    {
      "inputs": [
        {
          "internalType": "address",
          "name": "operator",
          "type": "address"
        },
        {
          "internalType": "bool",
          "name": "approved",
          "type": "bool"
        }
      ],
      "name": "setApprovalForAll",
      "outputs": [],
      "stateMutability": "nonpayable",
      "type": "function"
    },
    {
      "inputs": [
        {
          "internalType": "bytes4",
          "name": "interfaceId",
          "type": "bytes4"
        }
      ],
      "name": "supportsInterface",
      "outputs": [
        {
          "internalType": "bool",
          "name": "",
          "type": "bool"
        }
      ],
      "stateMutability": "view",
      "type": "function"
    },
    {
      "inputs": [
        {
          "internalType": "uint256",
          "name": "",
          "type": "uint256"
        }
      ],
      "name": "uri",
      "outputs": [
        {
          "internalType": "string",
          "name": "",
          "type": "string"
        }
      ],
      "stateMutability": "view",
      "type": "function"
    }
  ],
  "bytecode": "0x608060405260006003553480156200001657600080fd5b50604080516020810190915260008152620000318162000038565b5062000134565b80516200004d90600290602084019062000051565b5050565b8280546200005f90620000f7565b90600052602060002090601f016020900481019282620000835760008555620000ce565b82601f106200009e57805160ff1916838001178555620000ce565b82800160010185558215620000ce579182015b82811115620000ce578251825591602001919060010190620000b1565b50620000dc929150620000e0565b5090565b5b80821115620000dc5760008155600101620000e1565b600181811c908216806200010c57607f821691505b602082108114156200012e57634e487b7160e01b600052602260045260246000fd5b50919050565b61263580620001446000396000f3fe608060405234801561001057600080fd5b506004361061010a5760003560e01c80634e1273f4116100a2578063aade6e4211610071578063aade6e421461027c578063e985e9c51461029f578063eaf1c6d3146102db578063f242432a146102ee578063f3f514151461030157600080fd5b80634e1273f4146102235780635df878551461024357806368f222fd14610256578063a22cb4651461026957600080fd5b80632d7ad4c1116100de5780632d7ad4c1146101e85780632eb2c2d6146101f05780633eaaf86b146102055780634af57f9d1461020e57600080fd5b8062fdd58e1461010f57806301ffc9a7146101355780630e89341c14610158578063265aa62114610178575b600080fd5b61012261011d366004611cfc565b610321565b6040519081526020015b60405180910390f35b610148610143366004611d3f565b6103bb565b604051901515815260200161012c565b61016b610166366004611d5c565b61040b565b60405161012c9190611dc2565b6101bb610186366004611d5c565b600460208190526000918252604090912080546001820154600283015460038401549484015460059094015492949193909286565b604080519687526020870195909552938501929092526060840152608083015260a082015260c00161012c565b61012261049f565b6102036101fe366004611f21565b6105d8565b005b61012260035481565b61021661066f565b60405161012c9190611fcb565b610236610231366004611ffc565b61091c565b60405161012c9190612102565b610203610251366004612125565b610a46565b6101bb610264366004611cfc565b610f2e565b61020361027736600461217c565b610f82565b61012261028a366004611d5c565b60009081526004602052604090206005015490565b6101486102ad3660046121af565b6001600160a01b03918216600090815260016020908152604080832093909416825291909152205460ff1690565b6101226102e93660046121d9565b610f91565b6102036102fc366004612216565b611211565b61012261030f36600461227b565b60056020526000908152604090205481565b60006001600160a01b0383166103925760405162461bcd60e51b815260206004820152602b60248201527f455243313135353a2062616c616e636520717565727920666f7220746865207a60448201526a65726f206164647265737360a81b60648201526084015b60405180910390fd5b506000818152602081815260408083206001600160a01b03861684529091529020545b92915050565b60006001600160e01b03198216636cdb3d1360e11b14806103ec57506001600160e01b031982166303a24d0760e21b145b806103b557506301ffc9a760e01b6001600160e01b03198316146103b5565b60606002805461041a90612296565b80601f016020809104026020016040519081016040528092919081815260200182805461044690612296565b80156104935780601f1061046857610100808354040283529160200191610493565b820191906000526020600020905b81548152906001019060200180831161047657829003601f168201915b50505050509050919050565b600354600090816104b06001611298565b905060006040518060c00160405280836000600581106104d2576104d26122cb565b60200201518152602001836001600581106104ef576104ef6122cb565b602002015181526020018360026005811061050c5761050c6122cb565b6020020151815260200183600360058110610529576105296122cb565b6020020151815260200183600460058110610546576105466122cb565b602002015181526020016000815250905061057333846001604051806020016040528060008152506113c4565b6003546105819060016114ce565b60039081556000848152600460208181526040928390208551815590850151600182015591840151600283015560608401519282019290925560808301519181019190915560a09091015160059091015550919050565b6001600160a01b0385163314806105f457506105f485336102ad565b61065b5760405162461bcd60e51b815260206004820152603260248201527f455243313135353a207472616e736665722063616c6c6572206973206e6f74206044820152711bdddb995c881b9bdc88185c1c1c9bdd995960721b6064820152608401610389565b61066885858585856114e1565b5050505050565b610677611ca4565b33600090815260066020526040902054156106f15760405162461bcd60e51b815260206004820152603460248201527f596f752063616e206f6e6c792067656e6572617465206e6577206361726473206044820152731dda195b881e5bdd481a185d99480c081b19599d60621b6064820152608401610389565b6106f9611ca4565b60005b600381101561091657600354600061071381611298565b905060006040518060c0016040528083600060058110610735576107356122cb565b6020020151815260200183600160058110610752576107526122cb565b602002015181526020018360026005811061076f5761076f6122cb565b602002015181526020018360036005811061078c5761078c6122cb565b60200201518152602001836004600581106107a9576107a96122cb565b60200201518152602001600081525090506107d633846001604051806020016040528060008152506113c4565b6003546107e49060016114ce565b60039081556000848152600460208181526040808420865181558287018051600180840191909155838901805160028086019190915560608b018051868c015560808c018051878b015560a08d018051600598890155338c526006808b52898d2080548089018255908e529a909c208e519a909c02909b0189815595519486018590559251918501829055519984018a90559051968301879055965191909201819055915189967ff30b7f644407cd7bb867fa816333ad332ab11da37c33295af7a2ad5adb4f608d966108df96939490939192958652602086019490945260408501929092526060840152608083015260a082015260c00190565b60405180910390a2828585600381106108fa576108fa6122cb565b60200201525082915061090e9050816122f7565b9150506106fc565b50919050565b606081518351146109815760405162461bcd60e51b815260206004820152602960248201527f455243313135353a206163636f756e747320616e6420696473206c656e677468604482015268040dad2e6dac2e8c6d60bb1b6064820152608401610389565b6000835167ffffffffffffffff81111561099d5761099d611dd5565b6040519080825280602002602001820160405280156109c6578160200160208202803683370190505b50905060005b8451811015610a3e57610a118582815181106109ea576109ea6122cb565b6020026020010151858381518110610a0457610a046122cb565b6020026020010151610321565b828281518110610a2357610a236122cb565b6020908102919091010152610a37816122f7565b90506109cc565b509392505050565b610a503384610321565b600114610a9f5760405162461bcd60e51b815260206004820152601960248201527f596f7520646f206e6f74206f776e207468697320746f6b656e000000000000006044820152606401610389565b33600090815260056020526040902054600a11610b085760405162461bcd60e51b815260206004820152602160248201527f596f752068617665207265616368656420796f7572206461696c79206c696d696044820152601d60fa1b6064820152608401610389565b6000825111610b555760405162461bcd60e51b81526020600482015260196024820152784174747269627574652063616e6e6f7420626520656d70747960381b6044820152606401610389565b6000610b5f61049f565b90506000610b6d8585610f91565b90506000610b7b8386610f91565b905060008415610b8f575080821015610b95565b50808211155b6040805160208101909152600081528515610bcd57506040805180820190915260068152653434b3b432b960d11b6020820152610beb565b506040805180820190915260058152643637bbb2b960d91b60208201525b7f0a63baa4908e38974cad28aa3c1638b0d28661b8ecf109c7f3071260544d1e2281858585604051610c209493929190612312565b60405180910390a18115610eb057600088815260046020526040902060050154610c4b9060016114ce565b600460008a81526020019081526020016000206005018190555060066000336001600160a01b03166001600160a01b0316815260200190815260200160002060046000878152602001908152602001600020908060018154018082558091505060019003906000526020600020906006020160009091909190915060008201548160000155600182015481600101556002820154816002015560038201548160030155600482015481600401556005820154816005015550506000600460008781526020019081526020016000206040518060c0016040529081600082015481526020016001820154815260200160028201548152602001600382015481526020016004820154815260200160058201548152505090506000600460008b81526020019081526020016000206040518060c001604052908160008201548152602001600182015481526020016002820154815260200160038201548152602001600482015481526020016005820154815250509050867ff30b7f644407cd7bb867fa816333ad332ab11da37c33295af7a2ad5adb4f608d836000015184602001518560400151866060015187608001518860a00151604051610e3596959493929190958652602086019490945260408501929092526060840152608083015260a082015260c00190565b60405180910390a2805160208083015160408085015160608087015160808089015160a0808b015187519a8b52988a019790975294880193909352908601528401528201528a907ff30b7f644407cd7bb867fa816333ad332ab11da37c33295af7a2ad5adb4f608d9060c00160405180910390a25050610ef9565b610ebc338960016116be565b60405188907fb90306ad06b2a6ff86ddc9327db583062895ef6540e62dc50add009db5b356eb90600090a2600354610ef5906001611838565b6003555b33600090815260056020526040902054610f149060016114ce565b336000908152600560205260409020555050505050505050565b60066020528160005260406000208181548110610f4a57600080fd5b600091825260209091206006909102018054600182015460028301546003840154600485015460059095015493965091945092909186565b610f8d338383611844565b5050565b600080825111610fdf5760405162461bcd60e51b81526020600482015260196024820152784174747269627574652063616e6e6f7420626520656d70747960381b6044820152606401610389565b6040805180820190915260088152671d1bdc14dc19595960c21b6020918201528251908301207fd4cf44eb6b37ee2c35b78b51a7e275642287e1eec1b304813d43ebd9b7e85ad0141561104157506000828152600460205260409020546103b5565b6040805180820190915260058152643837bbb2b960d91b6020918201528251908301207f43a77ae921c7b4056776337fe2bced18787fc0b345c356a529f30a17f549127714156110a357506000828152600460205260409020600101546103b5565b6040805180820190915260068152651dd95a59da1d60d21b6020918201528251908301207faa228d32fe428a53a1a179be3226c078dbc4ad384b11589eda25b0dbd294813b141561110657506000828152600460205260409020600201546103b5565b604080518082019091526008815267636170616369747960c01b6020918201528251908301207ffcacf961433f16e4de805710bff48741c094cfc646460efb78d8b2295bcfc7e5141561116b57506000828152600460205260409020600301546103b5565b60408051808201909152600c81526b30b1b1b2b632b930ba34b7b760a11b6020918201528251908301207fe113369461fd0e413e4f93f599f777ca943aa227cf1580405dab1cbb62cea6ed14156111d55750600082815260046020819052604090912001546103b5565b60405162461bcd60e51b8152602060048201526011602482015270496e76616c69642061747472696275746560781b6044820152606401610389565b6001600160a01b03851633148061122d575061122d85336102ad565b61128b5760405162461bcd60e51b815260206004820152602960248201527f455243313135353a2063616c6c6572206973206e6f74206f776e6572206e6f7260448201526808185c1c1c9bdd995960ba1b6064820152608401610389565b6106688585858585611925565b6112a0611cc2565b6112a8611cc2565b826001141561133a5760005b600581101561133457600a816003546040516020016112dd929190918252602082015260400190565b6040516020818303038152906040528051906020012060001c6113009190612343565b61130b906001612365565b82826005811061131d5761131d6122cb565b60200201528061132c816122f7565b9150506112b4565b506103b5565b60005b60058110156113bd57600781600354604051602001611366929190918252602082015260400190565b6040516020818303038152906040528051906020012060001c6113899190612343565b611394906002612365565b8282600581106113a6576113a66122cb565b6020020152806113b5816122f7565b91505061133d565b5092915050565b6001600160a01b0384166114245760405162461bcd60e51b815260206004820152602160248201527f455243313135353a206d696e7420746f20746865207a65726f206164647265736044820152607360f81b6064820152608401610389565b3361143e8160008761143588611a42565b61066888611a42565b6000848152602081815260408083206001600160a01b03891684529091528120805485929061146e908490612365565b909155505060408051858152602081018590526001600160a01b0380881692600092918516917fc3d58168c5ae7397731d063d5bbf3d657854427343f4c083240f7aacaa2d0f62910160405180910390a461066881600087878787611a8d565b60006114da8284612365565b9392505050565b81518351146115435760405162461bcd60e51b815260206004820152602860248201527f455243313135353a2069647320616e6420616d6f756e7473206c656e677468206044820152670dad2e6dac2e8c6d60c31b6064820152608401610389565b6001600160a01b0384166115695760405162461bcd60e51b81526004016103899061237d565b3360005b845181101561165057600085828151811061158a5761158a6122cb565b6020026020010151905060008583815181106115a8576115a86122cb565b602090810291909101810151600084815280835260408082206001600160a01b038e1683529093529190912054909150818110156115f85760405162461bcd60e51b8152600401610389906123c2565b6000838152602081815260408083206001600160a01b038e8116855292528083208585039055908b16825281208054849290611635908490612365565b9250508190555050505080611649906122f7565b905061156d565b50846001600160a01b0316866001600160a01b0316826001600160a01b03167f4a39dc06d4c0dbc64b70af90fd698a233a518aa5d07e595d983b8c0526c8f7fb87876040516116a092919061240c565b60405180910390a46116b6818787878787611be9565b505050505050565b6001600160a01b0383166117205760405162461bcd60e51b815260206004820152602360248201527f455243313135353a206275726e2066726f6d20746865207a65726f206164647260448201526265737360e81b6064820152608401610389565b336117508185600061173187611a42565b61173a87611a42565b5050604080516020810190915260009052505050565b6000838152602081815260408083206001600160a01b0388168452909152902054828110156117cd5760405162461bcd60e51b8152602060048201526024808201527f455243313135353a206275726e20616d6f756e7420657863656564732062616c604482015263616e636560e01b6064820152608401610389565b6000848152602081815260408083206001600160a01b03898116808652918452828520888703905582518981529384018890529092908616917fc3d58168c5ae7397731d063d5bbf3d657854427343f4c083240f7aacaa2d0f62910160405180910390a45050505050565b60006114da828461243a565b816001600160a01b0316836001600160a01b031614156118b85760405162461bcd60e51b815260206004820152602960248201527f455243313135353a2073657474696e6720617070726f76616c20737461747573604482015268103337b91039b2b63360b91b6064820152608401610389565b6001600160a01b03838116600081815260016020908152604080832094871680845294825291829020805460ff191686151590811790915591519182527f17307eab39ab6107e8899845ad3d59bd9653f200f220920489ca2b5937696c31910160405180910390a3505050565b6001600160a01b03841661194b5760405162461bcd60e51b81526004016103899061237d565b3361195b81878761143588611a42565b6000848152602081815260408083206001600160a01b038a1684529091529020548381101561199c5760405162461bcd60e51b8152600401610389906123c2565b6000858152602081815260408083206001600160a01b038b81168552925280832087850390559088168252812080548692906119d9908490612365565b909155505060408051868152602081018690526001600160a01b03808916928a821692918616917fc3d58168c5ae7397731d063d5bbf3d657854427343f4c083240f7aacaa2d0f62910160405180910390a4611a39828888888888611a8d565b50505050505050565b60408051600180825281830190925260609160009190602080830190803683370190505090508281600081518110611a7c57611a7c6122cb565b602090810291909101015292915050565b6001600160a01b0384163b156116b65760405163f23a6e6160e01b81526001600160a01b0385169063f23a6e6190611ad19089908990889088908890600401612451565b6020604051808303816000875af1925050508015611b0c575060408051601f3d908101601f19168201909252611b0991810190612496565b60015b611bb957611b186124b3565b806308c379a01415611b525750611b2d6124cf565b80611b385750611b54565b8060405162461bcd60e51b81526004016103899190611dc2565b505b60405162461bcd60e51b815260206004820152603460248201527f455243313135353a207472616e7366657220746f206e6f6e20455243313135356044820152732932b1b2b4bb32b91034b6b83632b6b2b73a32b960611b6064820152608401610389565b6001600160e01b0319811663f23a6e6160e01b14611a395760405162461bcd60e51b815260040161038990612559565b6001600160a01b0384163b156116b65760405163bc197c8160e01b81526001600160a01b0385169063bc197c8190611c2d90899089908890889088906004016125a1565b6020604051808303816000875af1925050508015611c68575060408051601f3d908101601f19168201909252611c6591810190612496565b60015b611c7457611b186124b3565b6001600160e01b0319811663bc197c8160e01b14611a395760405162461bcd60e51b815260040161038990612559565b60405180606001604052806003906020820280368337509192915050565b6040518060a001604052806005906020820280368337509192915050565b80356001600160a01b0381168114611cf757600080fd5b919050565b60008060408385031215611d0f57600080fd5b611d1883611ce0565b946020939093013593505050565b6001600160e01b031981168114611d3c57600080fd5b50565b600060208284031215611d5157600080fd5b81356114da81611d26565b600060208284031215611d6e57600080fd5b5035919050565b6000815180845260005b81811015611d9b57602081850181015186830182015201611d7f565b81811115611dad576000602083870101525b50601f01601f19169290920160200192915050565b6020815260006114da6020830184611d75565b634e487b7160e01b600052604160045260246000fd5b601f8201601f1916810167ffffffffffffffff81118282101715611e1157611e11611dd5565b6040525050565b600067ffffffffffffffff821115611e3257611e32611dd5565b5060051b60200190565b600082601f830112611e4d57600080fd5b81356020611e5a82611e18565b604051611e678282611deb565b83815260059390931b8501820192828101915086841115611e8757600080fd5b8286015b84811015611ea25780358352918301918301611e8b565b509695505050505050565b600082601f830112611ebe57600080fd5b813567ffffffffffffffff811115611ed857611ed8611dd5565b604051611eef601f8301601f191660200182611deb565b818152846020838601011115611f0457600080fd5b816020850160208301376000918101602001919091529392505050565b600080600080600060a08688031215611f3957600080fd5b611f4286611ce0565b9450611f5060208701611ce0565b9350604086013567ffffffffffffffff80821115611f6d57600080fd5b611f7989838a01611e3c565b94506060880135915080821115611f8f57600080fd5b611f9b89838a01611e3c565b93506080880135915080821115611fb157600080fd5b50611fbe88828901611ead565b9150509295509295909350565b60608101818360005b6003811015611ff3578151835260209283019290910190600101611fd4565b50505092915050565b6000806040838503121561200f57600080fd5b823567ffffffffffffffff8082111561202757600080fd5b818501915085601f83011261203b57600080fd5b8135602061204882611e18565b6040516120558282611deb565b83815260059390931b850182019282810191508984111561207557600080fd5b948201945b8386101561209a5761208b86611ce0565b8252948201949082019061207a565b965050860135925050808211156120b057600080fd5b506120bd85828601611e3c565b9150509250929050565b600081518084526020808501945080840160005b838110156120f7578151875295820195908201906001016120db565b509495945050505050565b6020815260006114da60208301846120c7565b80358015158114611cf757600080fd5b60008060006060848603121561213a57600080fd5b83359250602084013567ffffffffffffffff81111561215857600080fd5b61216486828701611ead565b92505061217360408501612115565b90509250925092565b6000806040838503121561218f57600080fd5b61219883611ce0565b91506121a660208401612115565b90509250929050565b600080604083850312156121c257600080fd5b6121cb83611ce0565b91506121a660208401611ce0565b600080604083850312156121ec57600080fd5b82359150602083013567ffffffffffffffff81111561220a57600080fd5b6120bd85828601611ead565b600080600080600060a0868803121561222e57600080fd5b61223786611ce0565b945061224560208701611ce0565b93506040860135925060608601359150608086013567ffffffffffffffff81111561226f57600080fd5b611fbe88828901611ead565b60006020828403121561228d57600080fd5b6114da82611ce0565b600181811c908216806122aa57607f821691505b6020821081141561091657634e487b7160e01b600052602260045260246000fd5b634e487b7160e01b600052603260045260246000fd5b634e487b7160e01b600052601160045260246000fd5b600060001982141561230b5761230b6122e1565b5060010190565b6080815260006123256080830187611d75565b60208301959095525060408101929092521515606090910152919050565b60008261236057634e487b7160e01b600052601260045260246000fd5b500690565b60008219821115612378576123786122e1565b500190565b60208082526025908201527f455243313135353a207472616e7366657220746f20746865207a65726f206164604082015264647265737360d81b606082015260800190565b6020808252602a908201527f455243313135353a20696e73756666696369656e742062616c616e636520666f60408201526939103a3930b739b332b960b11b606082015260800190565b60408152600061241f60408301856120c7565b828103602084015261243181856120c7565b95945050505050565b60008282101561244c5761244c6122e1565b500390565b6001600160a01b03868116825285166020820152604081018490526060810183905260a06080820181905260009061248b90830184611d75565b979650505050505050565b6000602082840312156124a857600080fd5b81516114da81611d26565b600060033d11156124cc5760046000803e5060005160e01c5b90565b600060443d10156124dd5790565b6040516003193d81016004833e81513d67ffffffffffffffff816024840111818411171561250d57505050505090565b82850191508151818111156125255750505050505090565b843d870101602082850101111561253f5750505050505090565b61254e60208286010187611deb565b509095945050505050565b60208082526028908201527f455243313135353a204552433131353552656365697665722072656a656374656040820152676420746f6b656e7360c01b606082015260800190565b6001600160a01b0386811682528516602082015260a0604082018190526000906125cd908301866120c7565b82810360608401526125df81866120c7565b905082810360808401526125f38185611d75565b9897505050505050505056fea26469706673582212205f158050bbbe62dce61427a53cafa8600decd0f38504f27f7fa1cb152b74679064736f6c634300080b0033",
  "linkReferences": {},
  "deployedLinkReferences": {}
}